{
  "_format": "hh-sol-artifact-1",
  "contractName": "CarbonStablecoin",
  "sourceName": "contracts/CarbonStablecoin.sol",
  "abi": [
    {
      "inputs": [
        {
          "internalType": "address",
          "name": "_carbonCredit",
          "type": "address"
        },
        {
          "internalType": "address",
          "name": "initialOwner",
          "type": "address"
        }
      ],
      "stateMutability": "nonpayable",
      "type": "constructor"
    },
    {
      "inputs": [
        {
          "internalType": "address",
          "name": "spender",
          "type": "address"
        },
        {
          "internalType": "uint256",
          "name": "allowance",
          "type": "uint256"
        },
        {
          "internalType": "uint256",
          "name": "needed",
          "type": "uint256"
        }
      ],
      "name": "ERC20InsufficientAllowance",
      "type": "error"
    },
    {
      "inputs": [
        {
          "internalType": "address",
          "name": "sender",
          "type": "address"
        },
        {
          "internalType": "uint256",
          "name": "balance",
          "type": "uint256"
        },
        {
          "internalType": "uint256",
          "name": "needed",
          "type": "uint256"
        }
      ],
      "name": "ERC20InsufficientBalance",
      "type": "error"
    },
    {
      "inputs": [
        {
          "internalType": "address",
          "name": "approver",
          "type": "address"
        }
      ],
      "name": "ERC20InvalidApprover",
      "type": "error"
    },
    {
      "inputs": [
        {
          "internalType": "address",
          "name": "receiver",
          "type": "address"
        }
      ],
      "name": "ERC20InvalidReceiver",
      "type": "error"
    },
    {
      "inputs": [
        {
          "internalType": "address",
          "name": "sender",
          "type": "address"
        }
      ],
      "name": "ERC20InvalidSender",
      "type": "error"
    },
    {
      "inputs": [
        {
          "internalType": "address",
          "name": "spender",
          "type": "address"
        }
      ],
      "name": "ERC20InvalidSpender",
      "type": "error"
    },
    {
      "inputs": [
        {
          "internalType": "address",
          "name": "owner",
          "type": "address"
        }
      ],
      "name": "OwnableInvalidOwner",
      "type": "error"
    },
    {
      "inputs": [
        {
          "internalType": "address",
          "name": "account",
          "type": "address"
        }
      ],
      "name": "OwnableUnauthorizedAccount",
      "type": "error"
    },
    {
      "anonymous": false,
      "inputs": [
        {
          "indexed": true,
          "internalType": "address",
          "name": "owner",
          "type": "address"
        },
        {
          "indexed": true,
          "internalType": "address",
          "name": "spender",
          "type": "address"
        },
        {
          "indexed": false,
          "internalType": "uint256",
          "name": "value",
          "type": "uint256"
        }
      ],
      "name": "Approval",
      "type": "event"
    },
    {
      "anonymous": false,
      "inputs": [
        {
          "indexed": true,
          "internalType": "address",
          "name": "previousOwner",
          "type": "address"
        },
        {
          "indexed": true,
          "internalType": "address",
          "name": "newOwner",
          "type": "address"
        }
      ],
      "name": "OwnershipTransferred",
      "type": "event"
    },
    {
      "anonymous": false,
      "inputs": [
        {
          "indexed": true,
          "internalType": "address",
          "name": "from",
          "type": "address"
        },
        {
          "indexed": true,
          "internalType": "address",
          "name": "to",
          "type": "address"
        },
        {
          "indexed": false,
          "internalType": "uint256",
          "name": "value",
          "type": "uint256"
        }
      ],
      "name": "Transfer",
      "type": "event"
    },
    {
      "inputs": [
        {
          "internalType": "address",
          "name": "owner",
          "type": "address"
        },
        {
          "internalType": "address",
          "name": "spender",
          "type": "address"
        }
      ],
      "name": "allowance",
      "outputs": [
        {
          "internalType": "uint256",
          "name": "",
          "type": "uint256"
        }
      ],
      "stateMutability": "view",
      "type": "function"
    },
    {
      "inputs": [
        {
          "internalType": "address",
          "name": "spender",
          "type": "address"
        },
        {
          "internalType": "uint256",
          "name": "value",
          "type": "uint256"
        }
      ],
      "name": "approve",
      "outputs": [
        {
          "internalType": "bool",
          "name": "",
          "type": "bool"
        }
      ],
      "stateMutability": "nonpayable",
      "type": "function"
    },
    {
      "inputs": [
        {
          "internalType": "address",
          "name": "account",
          "type": "address"
        }
      ],
      "name": "balanceOf",
      "outputs": [
        {
          "internalType": "uint256",
          "name": "",
          "type": "uint256"
        }
      ],
      "stateMutability": "view",
      "type": "function"
    },
    {
      "inputs": [],
      "name": "carbonCredit",
      "outputs": [
        {
          "internalType": "contract CarbonCredit",
          "name": "",
          "type": "address"
        }
      ],
      "stateMutability": "view",
      "type": "function"
    },
    {
      "inputs": [],
      "name": "decimals",
      "outputs": [
        {
          "internalType": "uint8",
          "name": "",
          "type": "uint8"
        }
      ],
      "stateMutability": "view",
      "type": "function"
    },
    {
      "inputs": [
        {
          "internalType": "address",
          "name": "to",
          "type": "address"
        },
        {
          "internalType": "uint256",
          "name": "amount",
          "type": "uint256"
        }
      ],
      "name": "mint",
      "outputs": [],
      "stateMutability": "nonpayable",
      "type": "function"
    },
    {
      "inputs": [],
      "name": "name",
      "outputs": [
        {
          "internalType": "string",
          "name": "",
          "type": "string"
        }
      ],
      "stateMutability": "view",
      "type": "function"
    },
    {
      "inputs": [],
      "name": "owner",
      "outputs": [
        {
          "internalType": "address",
          "name": "",
          "type": "address"
        }
      ],
      "stateMutability": "view",
      "type": "function"
    },
    {
      "inputs": [],
      "name": "pegValue",
      "outputs": [
        {
          "internalType": "uint256",
          "name": "",
          "type": "uint256"
        }
      ],
      "stateMutability": "view",
      "type": "function"
    },
    {
      "inputs": [
        {
          "internalType": "address",
          "name": "from",
          "type": "address"
        },
        {
          "internalType": "uint256",
          "name": "amount",
          "type": "uint256"
        }
      ],
      "name": "redeem",
      "outputs": [],
      "stateMutability": "nonpayable",
      "type": "function"
    },
    {
      "inputs": [],
      "name": "renounceOwnership",
      "outputs": [],
      "stateMutability": "nonpayable",
      "type": "function"
    },
    {
      "inputs": [],
      "name": "symbol",
      "outputs": [
        {
          "internalType": "string",
          "name": "",
          "type": "string"
        }
      ],
      "stateMutability": "view",
      "type": "function"
    },
    {
      "inputs": [],
      "name": "totalSupply",
      "outputs": [
        {
          "internalType": "uint256",
          "name": "",
          "type": "uint256"
        }
      ],
      "stateMutability": "view",
      "type": "function"
    },
    {
      "inputs": [
        {
          "internalType": "address",
          "name": "to",
          "type": "address"
        },
        {
          "internalType": "uint256",
          "name": "value",
          "type": "uint256"
        }
      ],
      "name": "transfer",
      "outputs": [
        {
          "internalType": "bool",
          "name": "",
          "type": "bool"
        }
      ],
      "stateMutability": "nonpayable",
      "type": "function"
    },
    {
      "inputs": [
        {
          "internalType": "address",
          "name": "from",
          "type": "address"
        },
        {
          "internalType": "address",
          "name": "to",
          "type": "address"
        },
        {
          "internalType": "uint256",
          "name": "value",
          "type": "uint256"
        }
      ],
      "name": "transferFrom",
      "outputs": [
        {
          "internalType": "bool",
          "name": "",
          "type": "bool"
        }
      ],
      "stateMutability": "nonpayable",
      "type": "function"
    },
    {
      "inputs": [
        {
          "internalType": "address",
          "name": "newOwner",
          "type": "address"
        }
      ],
      "name": "transferOwnership",
      "outputs": [],
      "stateMutability": "nonpayable",
      "type": "function"
    },
    {
      "inputs": [
        {
          "internalType": "uint256",
          "name": "newPegValue",
          "type": "uint256"
        }
      ],
      "name": "updatePegValue",
      "outputs": [],
      "stateMutability": "nonpayable",
      "type": "function"
    }
  ],
  "bytecode": "0x60806040523480156200001157600080fd5b5060405162001d6238038062001d628339818101604052810190620000379190620002d9565b806040518060400160405280601081526020017f436172626f6e537461626c65636f696e000000000000000000000000000000008152506040518060400160405280600381526020017f43465300000000000000000000000000000000000000000000000000000000008152508160039081620000b591906200059a565b508060049081620000c791906200059a565b505050600073ffffffffffffffffffffffffffffffffffffffff168173ffffffffffffffffffffffffffffffffffffffff16036200013f5760006040517f1e4fbdf700000000000000000000000000000000000000000000000000000000815260040162000136919062000692565b60405180910390fd5b6200015081620001a960201b60201c565b5081600660006101000a81548173ffffffffffffffffffffffffffffffffffffffff021916908373ffffffffffffffffffffffffffffffffffffffff160217905550670de0b6b3a76400006007819055505050620006af565b6000600560009054906101000a900473ffffffffffffffffffffffffffffffffffffffff16905081600560006101000a81548173ffffffffffffffffffffffffffffffffffffffff021916908373ffffffffffffffffffffffffffffffffffffffff1602179055508173ffffffffffffffffffffffffffffffffffffffff168173ffffffffffffffffffffffffffffffffffffffff167f8be0079c531659141344cd1fd0a4f28419497f9722a3daafe3b4186f6b6457e060405160405180910390a35050565b600080fd5b600073ffffffffffffffffffffffffffffffffffffffff82169050919050565b6000620002a18262000274565b9050919050565b620002b38162000294565b8114620002bf57600080fd5b50565b600081519050620002d381620002a8565b92915050565b60008060408385031215620002f357620002f26200026f565b5b60006200030385828601620002c2565b92505060206200031685828601620002c2565b9150509250929050565b600081519050919050565b7f4e487b7100000000000000000000000000000000000000000000000000000000600052604160045260246000fd5b7f4e487b7100000000000000000000000000000000000000000000000000000000600052602260045260246000fd5b60006002820490506001821680620003a257607f821691505b602082108103620003b857620003b76200035a565b5b50919050565b60008190508160005260206000209050919050565b60006020601f8301049050919050565b600082821b905092915050565b600060088302620004227fffffffffffffffffffffffffffffffffffffffffffffffffffffffffffffffff82620003e3565b6200042e8683620003e3565b95508019841693508086168417925050509392505050565b6000819050919050565b6000819050919050565b60006200047b620004756200046f8462000446565b62000450565b62000446565b9050919050565b6000819050919050565b62000497836200045a565b620004af620004a68262000482565b848454620003f0565b825550505050565b600090565b620004c6620004b7565b620004d38184846200048c565b505050565b5b81811015620004fb57620004ef600082620004bc565b600181019050620004d9565b5050565b601f8211156200054a576200051481620003be565b6200051f84620003d3565b810160208510156200052f578190505b620005476200053e85620003d3565b830182620004d8565b50505b505050565b600082821c905092915050565b60006200056f600019846008026200054f565b1980831691505092915050565b60006200058a83836200055c565b9150826002028217905092915050565b620005a58262000320565b67ffffffffffffffff811115620005c157620005c06200032b565b5b620005cd825462000389565b620005da828285620004ff565b600060209050601f831160018114620006125760008415620005fd578287015190505b6200060985826200057c565b86555062000679565b601f1984166200062286620003be565b60005b828110156200064c5784890151825560018201915060208501945060208101905062000625565b868310156200066c578489015162000668601f8916826200055c565b8355505b6001600288020188555050505b505050505050565b6200068c8162000294565b82525050565b6000602082019050620006a9600083018462000681565b92915050565b6116a380620006bf6000396000f3fe608060405234801561001057600080fd5b506004361061010b5760003560e01c806369ac38fe116100a257806395d89b411161007157806395d89b4114610296578063a9059cbb146102b4578063c325752e146102e4578063dd62ed3e14610300578063f2fde38b146103305761010b565b806369ac38fe1461022057806370a082311461023e578063715018a61461026e5780638da5cb5b146102785761010b565b806323b872dd116100de57806323b872dd14610198578063313ce567146101c857806340c10f19146101e6578063637bf795146102025761010b565b806306fdde0314610110578063095ea7b31461012e57806318160ddd1461015e5780631e9a69501461017c575b600080fd5b61011861034c565b60405161012591906110f5565b60405180910390f35b610148600480360381019061014391906111b0565b6103de565b604051610155919061120b565b60405180910390f35b610166610401565b6040516101739190611235565b60405180910390f35b610196600480360381019061019191906111b0565b61040b565b005b6101b260048036038101906101ad9190611250565b6104e0565b6040516101bf919061120b565b60405180910390f35b6101d061050f565b6040516101dd91906112bf565b60405180910390f35b61020060048036038101906101fb91906111b0565b610518565b005b61020a6105ef565b6040516102179190611339565b60405180910390f35b610228610615565b6040516102359190611235565b60405180910390f35b61025860048036038101906102539190611354565b61061b565b6040516102659190611235565b60405180910390f35b610276610663565b005b610280610677565b60405161028d9190611390565b60405180910390f35b61029e6106a1565b6040516102ab91906110f5565b60405180910390f35b6102ce60048036038101906102c991906111b0565b610733565b6040516102db919061120b565b60405180910390f35b6102fe60048036038101906102f991906113ab565b610756565b005b61031a600480360381019061031591906113d8565b610768565b6040516103279190611235565b60405180910390f35b61034a60048036038101906103459190611354565b6107ef565b005b60606003805461035b90611447565b80601f016020809104026020016040519081016040528092919081815260200182805461038790611447565b80156103d45780601f106103a9576101008083540402835291602001916103d4565b820191906000526020600020905b8154815290600101906020018083116103b757829003601f168201915b5050505050905090565b6000806103e9610875565b90506103f681858561087d565b600191505092915050565b6000600254905090565b6000670de0b6b3a76400006007548361042491906114a7565b61042e9190611518565b905061043a838361088f565b600660009054906101000a900473ffffffffffffffffffffffffffffffffffffffff1673ffffffffffffffffffffffffffffffffffffffff1663a9059cbb84836040518363ffffffff1660e01b8152600401610497929190611549565b6020604051808303816000875af11580156104b6573d6000803e3d6000fd5b505050506040513d601f19601f820116820180604052508101906104da919061159e565b50505050565b6000806104eb610875565b90506104f8858285610911565b6105038585856109a6565b60019150509392505050565b60006012905090565b6000670de0b6b3a76400006007548361053191906114a7565b61053b9190611518565b9050600660009054906101000a900473ffffffffffffffffffffffffffffffffffffffff1673ffffffffffffffffffffffffffffffffffffffff166323b872dd3330846040518463ffffffff1660e01b815260040161059c939291906115cb565b6020604051808303816000875af11580156105bb573d6000803e3d6000fd5b505050506040513d601f19601f820116820180604052508101906105df919061159e565b506105ea8383610a9a565b505050565b600660009054906101000a900473ffffffffffffffffffffffffffffffffffffffff1681565b60075481565b60008060008373ffffffffffffffffffffffffffffffffffffffff1673ffffffffffffffffffffffffffffffffffffffff168152602001908152602001600020549050919050565b61066b610b1c565b6106756000610ba3565b565b6000600560009054906101000a900473ffffffffffffffffffffffffffffffffffffffff16905090565b6060600480546106b090611447565b80601f01602080910402602001604051908101604052809291908181526020018280546106dc90611447565b80156107295780601f106106fe57610100808354040283529160200191610729565b820191906000526020600020905b81548152906001019060200180831161070c57829003601f168201915b5050505050905090565b60008061073e610875565b905061074b8185856109a6565b600191505092915050565b61075e610b1c565b8060078190555050565b6000600160008473ffffffffffffffffffffffffffffffffffffffff1673ffffffffffffffffffffffffffffffffffffffff16815260200190815260200160002060008373ffffffffffffffffffffffffffffffffffffffff1673ffffffffffffffffffffffffffffffffffffffff16815260200190815260200160002054905092915050565b6107f7610b1c565b600073ffffffffffffffffffffffffffffffffffffffff168173ffffffffffffffffffffffffffffffffffffffff16036108695760006040517f1e4fbdf70000000000000000000000000000000000000000000000000000000081526004016108609190611390565b60405180910390fd5b61087281610ba3565b50565b600033905090565b61088a8383836001610c69565b505050565b600073ffffffffffffffffffffffffffffffffffffffff168273ffffffffffffffffffffffffffffffffffffffff16036109015760006040517f96c6fd1e0000000000000000000000000000000000000000000000000000000081526004016108f89190611390565b60405180910390fd5b61090d82600083610e40565b5050565b600061091d8484610768565b90507fffffffffffffffffffffffffffffffffffffffffffffffffffffffffffffffff8110156109a05781811015610990578281836040517ffb8f41b200000000000000000000000000000000000000000000000000000000815260040161098793929190611602565b60405180910390fd5b61099f84848484036000610c69565b5b50505050565b600073ffffffffffffffffffffffffffffffffffffffff168373ffffffffffffffffffffffffffffffffffffffff1603610a185760006040517f96c6fd1e000000000000000000000000000000000000000000000000000000008152600401610a0f9190611390565b60405180910390fd5b600073ffffffffffffffffffffffffffffffffffffffff168273ffffffffffffffffffffffffffffffffffffffff1603610a8a5760006040517fec442f05000000000000000000000000000000000000000000000000000000008152600401610a819190611390565b60405180910390fd5b610a95838383610e40565b505050565b600073ffffffffffffffffffffffffffffffffffffffff168273ffffffffffffffffffffffffffffffffffffffff1603610b0c5760006040517fec442f05000000000000000000000000000000000000000000000000000000008152600401610b039190611390565b60405180910390fd5b610b1860008383610e40565b5050565b610b24610875565b73ffffffffffffffffffffffffffffffffffffffff16610b42610677565b73ffffffffffffffffffffffffffffffffffffffff1614610ba157610b65610875565b6040517f118cdaa7000000000000000000000000000000000000000000000000000000008152600401610b989190611390565b60405180910390fd5b565b6000600560009054906101000a900473ffffffffffffffffffffffffffffffffffffffff16905081600560006101000a81548173ffffffffffffffffffffffffffffffffffffffff021916908373ffffffffffffffffffffffffffffffffffffffff1602179055508173ffffffffffffffffffffffffffffffffffffffff168173ffffffffffffffffffffffffffffffffffffffff167f8be0079c531659141344cd1fd0a4f28419497f9722a3daafe3b4186f6b6457e060405160405180910390a35050565b600073ffffffffffffffffffffffffffffffffffffffff168473ffffffffffffffffffffffffffffffffffffffff1603610cdb5760006040517fe602df05000000000000000000000000000000000000000000000000000000008152600401610cd29190611390565b60405180910390fd5b600073ffffffffffffffffffffffffffffffffffffffff168373ffffffffffffffffffffffffffffffffffffffff1603610d4d5760006040517f94280d62000000000000000000000000000000000000000000000000000000008152600401610d449190611390565b60405180910390fd5b81600160008673ffffffffffffffffffffffffffffffffffffffff1673ffffffffffffffffffffffffffffffffffffffff16815260200190815260200160002060008573ffffffffffffffffffffffffffffffffffffffff1673ffffffffffffffffffffffffffffffffffffffff168152602001908152602001600020819055508015610e3a578273ffffffffffffffffffffffffffffffffffffffff168473ffffffffffffffffffffffffffffffffffffffff167f8c5be1e5ebec7d5bd14f71427d1e84f3dd0314c0f7b2291e5b200ac8c7c3b92584604051610e319190611235565b60405180910390a35b50505050565b600073ffffffffffffffffffffffffffffffffffffffff168373ffffffffffffffffffffffffffffffffffffffff1603610e92578060026000828254610e869190611639565b92505081905550610f65565b60008060008573ffffffffffffffffffffffffffffffffffffffff1673ffffffffffffffffffffffffffffffffffffffff16815260200190815260200160002054905081811015610f1e578381836040517fe450d38c000000000000000000000000000000000000000000000000000000008152600401610f1593929190611602565b60405180910390fd5b8181036000808673ffffffffffffffffffffffffffffffffffffffff1673ffffffffffffffffffffffffffffffffffffffff16815260200190815260200160002081905550505b600073ffffffffffffffffffffffffffffffffffffffff168273ffffffffffffffffffffffffffffffffffffffff1603610fae5780600260008282540392505081905550610ffb565b806000808473ffffffffffffffffffffffffffffffffffffffff1673ffffffffffffffffffffffffffffffffffffffff168152602001908152602001600020600082825401925050819055505b8173ffffffffffffffffffffffffffffffffffffffff168373ffffffffffffffffffffffffffffffffffffffff167fddf252ad1be2c89b69c2b068fc378daa952ba7f163c4a11628f55a4df523b3ef836040516110589190611235565b60405180910390a3505050565b600081519050919050565b600082825260208201905092915050565b60005b8381101561109f578082015181840152602081019050611084565b60008484015250505050565b6000601f19601f8301169050919050565b60006110c782611065565b6110d18185611070565b93506110e1818560208601611081565b6110ea816110ab565b840191505092915050565b6000602082019050818103600083015261110f81846110bc565b905092915050565b600080fd5b600073ffffffffffffffffffffffffffffffffffffffff82169050919050565b60006111478261111c565b9050919050565b6111578161113c565b811461116257600080fd5b50565b6000813590506111748161114e565b92915050565b6000819050919050565b61118d8161117a565b811461119857600080fd5b50565b6000813590506111aa81611184565b92915050565b600080604083850312156111c7576111c6611117565b5b60006111d585828601611165565b92505060206111e68582860161119b565b9150509250929050565b60008115159050919050565b611205816111f0565b82525050565b600060208201905061122060008301846111fc565b92915050565b61122f8161117a565b82525050565b600060208201905061124a6000830184611226565b92915050565b60008060006060848603121561126957611268611117565b5b600061127786828701611165565b935050602061128886828701611165565b92505060406112998682870161119b565b9150509250925092565b600060ff82169050919050565b6112b9816112a3565b82525050565b60006020820190506112d460008301846112b0565b92915050565b6000819050919050565b60006112ff6112fa6112f58461111c565b6112da565b61111c565b9050919050565b6000611311826112e4565b9050919050565b600061132382611306565b9050919050565b61133381611318565b82525050565b600060208201905061134e600083018461132a565b92915050565b60006020828403121561136a57611369611117565b5b600061137884828501611165565b91505092915050565b61138a8161113c565b82525050565b60006020820190506113a56000830184611381565b92915050565b6000602082840312156113c1576113c0611117565b5b60006113cf8482850161119b565b91505092915050565b600080604083850312156113ef576113ee611117565b5b60006113fd85828601611165565b925050602061140e85828601611165565b9150509250929050565b7f4e487b7100000000000000000000000000000000000000000000000000000000600052602260045260246000fd5b6000600282049050600182168061145f57607f821691505b60208210810361147257611471611418565b5b50919050565b7f4e487b7100000000000000000000000000000000000000000000000000000000600052601160045260246000fd5b60006114b28261117a565b91506114bd8361117a565b92508282026114cb8161117a565b915082820484148315176114e2576114e1611478565b5b5092915050565b7f4e487b7100000000000000000000000000000000000000000000000000000000600052601260045260246000fd5b60006115238261117a565b915061152e8361117a565b92508261153e5761153d6114e9565b5b828204905092915050565b600060408201905061155e6000830185611381565b61156b6020830184611226565b9392505050565b61157b816111f0565b811461158657600080fd5b50565b60008151905061159881611572565b92915050565b6000602082840312156115b4576115b3611117565b5b60006115c284828501611589565b91505092915050565b60006060820190506115e06000830186611381565b6115ed6020830185611381565b6115fa6040830184611226565b949350505050565b60006060820190506116176000830186611381565b6116246020830185611226565b6116316040830184611226565b949350505050565b60006116448261117a565b915061164f8361117a565b925082820190508082111561166757611666611478565b5b9291505056fea26469706673582212208155432d2162a3143fa7ed93bb4b1d67f8f0cfcd3969eff680152ad0b05441b464736f6c63430008140033",
  "linkReferences": {},
  "deployedLinkReferences": {}
}