{
  "_format": "hh-sol-artifact-1",
  "contractName": "CarbonForestToken",
  "sourceName": "contracts/CarbonForestToken.sol",
  "abi": [
    {
      "inputs": [
        {
          "internalType": "address",
          "name": "initialOwner",
          "type": "address"
        }
      ],
      "stateMutability": "nonpayable",
      "type": "constructor"
    },
    {
      "inputs": [
        {
          "internalType": "address",
          "name": "spender",
          "type": "address"
        },
        {
          "internalType": "uint256",
          "name": "allowance",
          "type": "uint256"
        },
        {
          "internalType": "uint256",
          "name": "needed",
          "type": "uint256"
        }
      ],
      "name": "ERC20InsufficientAllowance",
      "type": "error"
    },
    {
      "inputs": [
        {
          "internalType": "address",
          "name": "sender",
          "type": "address"
        },
        {
          "internalType": "uint256",
          "name": "balance",
          "type": "uint256"
        },
        {
          "internalType": "uint256",
          "name": "needed",
          "type": "uint256"
        }
      ],
      "name": "ERC20InsufficientBalance",
      "type": "error"
    },
    {
      "inputs": [
        {
          "internalType": "address",
          "name": "approver",
          "type": "address"
        }
      ],
      "name": "ERC20InvalidApprover",
      "type": "error"
    },
    {
      "inputs": [
        {
          "internalType": "address",
          "name": "receiver",
          "type": "address"
        }
      ],
      "name": "ERC20InvalidReceiver",
      "type": "error"
    },
    {
      "inputs": [
        {
          "internalType": "address",
          "name": "sender",
          "type": "address"
        }
      ],
      "name": "ERC20InvalidSender",
      "type": "error"
    },
    {
      "inputs": [
        {
          "internalType": "address",
          "name": "spender",
          "type": "address"
        }
      ],
      "name": "ERC20InvalidSpender",
      "type": "error"
    },
    {
      "inputs": [
        {
          "internalType": "address",
          "name": "owner",
          "type": "address"
        }
      ],
      "name": "OwnableInvalidOwner",
      "type": "error"
    },
    {
      "inputs": [
        {
          "internalType": "address",
          "name": "account",
          "type": "address"
        }
      ],
      "name": "OwnableUnauthorizedAccount",
      "type": "error"
    },
    {
      "anonymous": false,
      "inputs": [
        {
          "indexed": true,
          "internalType": "address",
          "name": "owner",
          "type": "address"
        },
        {
          "indexed": true,
          "internalType": "address",
          "name": "spender",
          "type": "address"
        },
        {
          "indexed": false,
          "internalType": "uint256",
          "name": "value",
          "type": "uint256"
        }
      ],
      "name": "Approval",
      "type": "event"
    },
    {
      "anonymous": false,
      "inputs": [
        {
          "indexed": true,
          "internalType": "address",
          "name": "previousOwner",
          "type": "address"
        },
        {
          "indexed": true,
          "internalType": "address",
          "name": "newOwner",
          "type": "address"
        }
      ],
      "name": "OwnershipTransferred",
      "type": "event"
    },
    {
      "anonymous": false,
      "inputs": [
        {
          "indexed": true,
          "internalType": "address",
          "name": "from",
          "type": "address"
        },
        {
          "indexed": true,
          "internalType": "address",
          "name": "to",
          "type": "address"
        },
        {
          "indexed": false,
          "internalType": "uint256",
          "name": "value",
          "type": "uint256"
        }
      ],
      "name": "Transfer",
      "type": "event"
    },
    {
      "inputs": [
        {
          "internalType": "address",
          "name": "owner",
          "type": "address"
        },
        {
          "internalType": "address",
          "name": "spender",
          "type": "address"
        }
      ],
      "name": "allowance",
      "outputs": [
        {
          "internalType": "uint256",
          "name": "",
          "type": "uint256"
        }
      ],
      "stateMutability": "view",
      "type": "function"
    },
    {
      "inputs": [
        {
          "internalType": "address",
          "name": "spender",
          "type": "address"
        },
        {
          "internalType": "uint256",
          "name": "value",
          "type": "uint256"
        }
      ],
      "name": "approve",
      "outputs": [
        {
          "internalType": "bool",
          "name": "",
          "type": "bool"
        }
      ],
      "stateMutability": "nonpayable",
      "type": "function"
    },
    {
      "inputs": [
        {
          "internalType": "address",
          "name": "account",
          "type": "address"
        }
      ],
      "name": "balanceOf",
      "outputs": [
        {
          "internalType": "uint256",
          "name": "",
          "type": "uint256"
        }
      ],
      "stateMutability": "view",
      "type": "function"
    },
    {
      "inputs": [
        {
          "internalType": "uint256",
          "name": "",
          "type": "uint256"
        }
      ],
      "name": "carbonYield",
      "outputs": [
        {
          "internalType": "uint256",
          "name": "",
          "type": "uint256"
        }
      ],
      "stateMutability": "view",
      "type": "function"
    },
    {
      "inputs": [],
      "name": "decimals",
      "outputs": [
        {
          "internalType": "uint8",
          "name": "",
          "type": "uint8"
        }
      ],
      "stateMutability": "view",
      "type": "function"
    },
    {
      "inputs": [
        {
          "internalType": "address",
          "name": "to",
          "type": "address"
        },
        {
          "internalType": "uint256",
          "name": "tokenId",
          "type": "uint256"
        },
        {
          "internalType": "string",
          "name": "metadata",
          "type": "string"
        },
        {
          "internalType": "uint256",
          "name": "yieldAmount",
          "type": "uint256"
        }
      ],
      "name": "mintParcel",
      "outputs": [],
      "stateMutability": "nonpayable",
      "type": "function"
    },
    {
      "inputs": [],
      "name": "name",
      "outputs": [
        {
          "internalType": "string",
          "name": "",
          "type": "string"
        }
      ],
      "stateMutability": "view",
      "type": "function"
    },
    {
      "inputs": [],
      "name": "owner",
      "outputs": [
        {
          "internalType": "address",
          "name": "",
          "type": "address"
        }
      ],
      "stateMutability": "view",
      "type": "function"
    },
    {
      "inputs": [
        {
          "internalType": "uint256",
          "name": "",
          "type": "uint256"
        }
      ],
      "name": "parcelMetadata",
      "outputs": [
        {
          "internalType": "string",
          "name": "",
          "type": "string"
        }
      ],
      "stateMutability": "view",
      "type": "function"
    },
    {
      "inputs": [],
      "name": "renounceOwnership",
      "outputs": [],
      "stateMutability": "nonpayable",
      "type": "function"
    },
    {
      "inputs": [],
      "name": "symbol",
      "outputs": [
        {
          "internalType": "string",
          "name": "",
          "type": "string"
        }
      ],
      "stateMutability": "view",
      "type": "function"
    },
    {
      "inputs": [],
      "name": "totalSupply",
      "outputs": [
        {
          "internalType": "uint256",
          "name": "",
          "type": "uint256"
        }
      ],
      "stateMutability": "view",
      "type": "function"
    },
    {
      "inputs": [
        {
          "internalType": "address",
          "name": "to",
          "type": "address"
        },
        {
          "internalType": "uint256",
          "name": "value",
          "type": "uint256"
        }
      ],
      "name": "transfer",
      "outputs": [
        {
          "internalType": "bool",
          "name": "",
          "type": "bool"
        }
      ],
      "stateMutability": "nonpayable",
      "type": "function"
    },
    {
      "inputs": [
        {
          "internalType": "address",
          "name": "from",
          "type": "address"
        },
        {
          "internalType": "address",
          "name": "to",
          "type": "address"
        },
        {
          "internalType": "uint256",
          "name": "value",
          "type": "uint256"
        }
      ],
      "name": "transferFrom",
      "outputs": [
        {
          "internalType": "bool",
          "name": "",
          "type": "bool"
        }
      ],
      "stateMutability": "nonpayable",
      "type": "function"
    },
    {
      "inputs": [
        {
          "internalType": "address",
          "name": "newOwner",
          "type": "address"
        }
      ],
      "name": "transferOwnership",
      "outputs": [],
      "stateMutability": "nonpayable",
      "type": "function"
    },
    {
      "inputs": [
        {
          "internalType": "uint256",
          "name": "tokenId",
          "type": "uint256"
        },
        {
          "internalType": "uint256",
          "name": "newYield",
          "type": "uint256"
        }
      ],
      "name": "updateCarbonYield",
      "outputs": [],
      "stateMutability": "nonpayable",
      "type": "function"
    }
  ],
  "bytecode": "0x60806040523480156200001157600080fd5b5060405162001e6a38038062001e6a833981810160405281019062000037919062000288565b806040518060400160405280601181526020017f436172626f6e466f72657374546f6b656e0000000000000000000000000000008152506040518060400160405280600381526020017f43465400000000000000000000000000000000000000000000000000000000008152508160039081620000b5919062000534565b508060049081620000c7919062000534565b505050600073ffffffffffffffffffffffffffffffffffffffff168173ffffffffffffffffffffffffffffffffffffffff16036200013f5760006040517f1e4fbdf70000000000000000000000000000000000000000000000000000000081526004016200013691906200062c565b60405180910390fd5b62000150816200015860201b60201c565b505062000649565b6000600560009054906101000a900473ffffffffffffffffffffffffffffffffffffffff16905081600560006101000a81548173ffffffffffffffffffffffffffffffffffffffff021916908373ffffffffffffffffffffffffffffffffffffffff1602179055508173ffffffffffffffffffffffffffffffffffffffff168173ffffffffffffffffffffffffffffffffffffffff167f8be0079c531659141344cd1fd0a4f28419497f9722a3daafe3b4186f6b6457e060405160405180910390a35050565b600080fd5b600073ffffffffffffffffffffffffffffffffffffffff82169050919050565b6000620002508262000223565b9050919050565b620002628162000243565b81146200026e57600080fd5b50565b600081519050620002828162000257565b92915050565b600060208284031215620002a157620002a06200021e565b5b6000620002b18482850162000271565b91505092915050565b600081519050919050565b7f4e487b7100000000000000000000000000000000000000000000000000000000600052604160045260246000fd5b7f4e487b7100000000000000000000000000000000000000000000000000000000600052602260045260246000fd5b600060028204905060018216806200033c57607f821691505b602082108103620003525762000351620002f4565b5b50919050565b60008190508160005260206000209050919050565b60006020601f8301049050919050565b600082821b905092915050565b600060088302620003bc7fffffffffffffffffffffffffffffffffffffffffffffffffffffffffffffffff826200037d565b620003c886836200037d565b95508019841693508086168417925050509392505050565b6000819050919050565b6000819050919050565b6000620004156200040f6200040984620003e0565b620003ea565b620003e0565b9050919050565b6000819050919050565b6200043183620003f4565b6200044962000440826200041c565b8484546200038a565b825550505050565b600090565b6200046062000451565b6200046d81848462000426565b505050565b5b8181101562000495576200048960008262000456565b60018101905062000473565b5050565b601f821115620004e457620004ae8162000358565b620004b9846200036d565b81016020851015620004c9578190505b620004e1620004d8856200036d565b83018262000472565b50505b505050565b600082821c905092915050565b60006200050960001984600802620004e9565b1980831691505092915050565b6000620005248383620004f6565b9150826002028217905092915050565b6200053f82620002ba565b67ffffffffffffffff8111156200055b576200055a620002c5565b5b62000567825462000323565b6200057482828562000499565b600060209050601f831160018114620005ac576000841562000597578287015190505b620005a3858262000516565b86555062000613565b601f198416620005bc8662000358565b60005b82811015620005e657848901518255600182019150602085019450602081019050620005bf565b8683101562000606578489015162000602601f891682620004f6565b8355505b6001600288020188555050505b505050505050565b620006268162000243565b82525050565b60006020820190506200064360008301846200061b565b92915050565b61181180620006596000396000f3fe608060405234801561001057600080fd5b50600436106101005760003560e01c806383536bd411610097578063a9059cbb11610066578063a9059cbb146102b1578063dd62ed3e146102e1578063f2fde38b14610311578063f784bd9e1461032d57610100565b806383536bd4146102295780638da5cb5b1461025957806395d89b4114610277578063a85013581461029557610100565b8063313ce567116100d3578063313ce567146101a15780635b593727146101bf57806370a08231146101ef578063715018a61461021f57610100565b806306fdde0314610105578063095ea7b31461012357806318160ddd1461015357806323b872dd14610171575b600080fd5b61010d610349565b60405161011a9190610fb3565b60405180910390f35b61013d6004803603810190610138919061107d565b6103db565b60405161014a91906110d8565b60405180910390f35b61015b6103fe565b6040516101689190611102565b60405180910390f35b61018b6004803603810190610186919061111d565b610408565b60405161019891906110d8565b60405180910390f35b6101a9610437565b6040516101b6919061118c565b60405180910390f35b6101d960048036038101906101d491906111a7565b610440565b6040516101e69190611102565b60405180910390f35b610209600480360381019061020491906111d4565b610458565b6040516102169190611102565b60405180910390f35b6102276104a0565b005b610243600480360381019061023e91906111a7565b6104b4565b6040516102509190610fb3565b60405180910390f35b610261610554565b60405161026e9190611210565b60405180910390f35b61027f61057e565b60405161028c9190610fb3565b60405180910390f35b6102af60048036038101906102aa919061122b565b610610565b005b6102cb60048036038101906102c6919061107d565b610634565b6040516102d891906110d8565b60405180910390f35b6102fb60048036038101906102f6919061126b565b610657565b6040516103089190611102565b60405180910390f35b61032b600480360381019061032691906111d4565b6106de565b005b610347600480360381019061034291906113e0565b610764565b005b60606003805461035890611492565b80601f016020809104026020016040519081016040528092919081815260200182805461038490611492565b80156103d15780601f106103a6576101008083540402835291602001916103d1565b820191906000526020600020905b8154815290600101906020018083116103b457829003601f168201915b5050505050905090565b6000806103e66107b5565b90506103f38185856107bd565b600191505092915050565b6000600254905090565b6000806104136107b5565b90506104208582856107cf565b61042b858585610864565b60019150509392505050565b60006012905090565b60076020528060005260406000206000915090505481565b60008060008373ffffffffffffffffffffffffffffffffffffffff1673ffffffffffffffffffffffffffffffffffffffff168152602001908152602001600020549050919050565b6104a8610958565b6104b260006109df565b565b600660205280600052604060002060009150905080546104d390611492565b80601f01602080910402602001604051908101604052809291908181526020018280546104ff90611492565b801561054c5780601f106105215761010080835404028352916020019161054c565b820191906000526020600020905b81548152906001019060200180831161052f57829003601f168201915b505050505081565b6000600560009054906101000a900473ffffffffffffffffffffffffffffffffffffffff16905090565b60606004805461058d90611492565b80601f01602080910402602001604051908101604052809291908181526020018280546105b990611492565b80156106065780601f106105db57610100808354040283529160200191610606565b820191906000526020600020905b8154815290600101906020018083116105e957829003601f168201915b5050505050905090565b610618610958565b8060076000848152602001908152602001600020819055505050565b60008061063f6107b5565b905061064c818585610864565b600191505092915050565b6000600160008473ffffffffffffffffffffffffffffffffffffffff1673ffffffffffffffffffffffffffffffffffffffff16815260200190815260200160002060008373ffffffffffffffffffffffffffffffffffffffff1673ffffffffffffffffffffffffffffffffffffffff16815260200190815260200160002054905092915050565b6106e6610958565b600073ffffffffffffffffffffffffffffffffffffffff168173ffffffffffffffffffffffffffffffffffffffff16036107585760006040517f1e4fbdf700000000000000000000000000000000000000000000000000000000815260040161074f9190611210565b60405180910390fd5b610761816109df565b50565b61076c610958565b6107768484610aa5565b81600660008581526020019081526020016000209081610796919061166f565b5080600760008581526020019081526020016000208190555050505050565b600033905090565b6107ca8383836001610b27565b505050565b60006107db8484610657565b90507fffffffffffffffffffffffffffffffffffffffffffffffffffffffffffffffff81101561085e578181101561084e578281836040517ffb8f41b200000000000000000000000000000000000000000000000000000000815260040161084593929190611741565b60405180910390fd5b61085d84848484036000610b27565b5b50505050565b600073ffffffffffffffffffffffffffffffffffffffff168373ffffffffffffffffffffffffffffffffffffffff16036108d65760006040517f96c6fd1e0000000000000000000000000000000000000000000000000000000081526004016108cd9190611210565b60405180910390fd5b600073ffffffffffffffffffffffffffffffffffffffff168273ffffffffffffffffffffffffffffffffffffffff16036109485760006040517fec442f0500000000000000000000000000000000000000000000000000000000815260040161093f9190611210565b60405180910390fd5b610953838383610cfe565b505050565b6109606107b5565b73ffffffffffffffffffffffffffffffffffffffff1661097e610554565b73ffffffffffffffffffffffffffffffffffffffff16146109dd576109a16107b5565b6040517f118cdaa70000000000000000000000000000000000000000000000000000000081526004016109d49190611210565b60405180910390fd5b565b6000600560009054906101000a900473ffffffffffffffffffffffffffffffffffffffff16905081600560006101000a81548173ffffffffffffffffffffffffffffffffffffffff021916908373ffffffffffffffffffffffffffffffffffffffff1602179055508173ffffffffffffffffffffffffffffffffffffffff168173ffffffffffffffffffffffffffffffffffffffff167f8be0079c531659141344cd1fd0a4f28419497f9722a3daafe3b4186f6b6457e060405160405180910390a35050565b600073ffffffffffffffffffffffffffffffffffffffff168273ffffffffffffffffffffffffffffffffffffffff1603610b175760006040517fec442f05000000000000000000000000000000000000000000000000000000008152600401610b0e9190611210565b60405180910390fd5b610b2360008383610cfe565b5050565b600073ffffffffffffffffffffffffffffffffffffffff168473ffffffffffffffffffffffffffffffffffffffff1603610b995760006040517fe602df05000000000000000000000000000000000000000000000000000000008152600401610b909190611210565b60405180910390fd5b600073ffffffffffffffffffffffffffffffffffffffff168373ffffffffffffffffffffffffffffffffffffffff1603610c0b5760006040517f94280d62000000000000000000000000000000000000000000000000000000008152600401610c029190611210565b60405180910390fd5b81600160008673ffffffffffffffffffffffffffffffffffffffff1673ffffffffffffffffffffffffffffffffffffffff16815260200190815260200160002060008573ffffffffffffffffffffffffffffffffffffffff1673ffffffffffffffffffffffffffffffffffffffff168152602001908152602001600020819055508015610cf8578273ffffffffffffffffffffffffffffffffffffffff168473ffffffffffffffffffffffffffffffffffffffff167f8c5be1e5ebec7d5bd14f71427d1e84f3dd0314c0f7b2291e5b200ac8c7c3b92584604051610cef9190611102565b60405180910390a35b50505050565b600073ffffffffffffffffffffffffffffffffffffffff168373ffffffffffffffffffffffffffffffffffffffff1603610d50578060026000828254610d4491906117a7565b92505081905550610e23565b60008060008573ffffffffffffffffffffffffffffffffffffffff1673ffffffffffffffffffffffffffffffffffffffff16815260200190815260200160002054905081811015610ddc578381836040517fe450d38c000000000000000000000000000000000000000000000000000000008152600401610dd393929190611741565b60405180910390fd5b8181036000808673ffffffffffffffffffffffffffffffffffffffff1673ffffffffffffffffffffffffffffffffffffffff16815260200190815260200160002081905550505b600073ffffffffffffffffffffffffffffffffffffffff168273ffffffffffffffffffffffffffffffffffffffff1603610e6c5780600260008282540392505081905550610eb9565b806000808473ffffffffffffffffffffffffffffffffffffffff1673ffffffffffffffffffffffffffffffffffffffff168152602001908152602001600020600082825401925050819055505b8173ffffffffffffffffffffffffffffffffffffffff168373ffffffffffffffffffffffffffffffffffffffff167fddf252ad1be2c89b69c2b068fc378daa952ba7f163c4a11628f55a4df523b3ef83604051610f169190611102565b60405180910390a3505050565b600081519050919050565b600082825260208201905092915050565b60005b83811015610f5d578082015181840152602081019050610f42565b60008484015250505050565b6000601f19601f8301169050919050565b6000610f8582610f23565b610f8f8185610f2e565b9350610f9f818560208601610f3f565b610fa881610f69565b840191505092915050565b60006020820190508181036000830152610fcd8184610f7a565b905092915050565b6000604051905090565b600080fd5b600080fd5b600073ffffffffffffffffffffffffffffffffffffffff82169050919050565b600061101482610fe9565b9050919050565b61102481611009565b811461102f57600080fd5b50565b6000813590506110418161101b565b92915050565b6000819050919050565b61105a81611047565b811461106557600080fd5b50565b60008135905061107781611051565b92915050565b6000806040838503121561109457611093610fdf565b5b60006110a285828601611032565b92505060206110b385828601611068565b9150509250929050565b60008115159050919050565b6110d2816110bd565b82525050565b60006020820190506110ed60008301846110c9565b92915050565b6110fc81611047565b82525050565b600060208201905061111760008301846110f3565b92915050565b60008060006060848603121561113657611135610fdf565b5b600061114486828701611032565b935050602061115586828701611032565b925050604061116686828701611068565b9150509250925092565b600060ff82169050919050565b61118681611170565b82525050565b60006020820190506111a1600083018461117d565b92915050565b6000602082840312156111bd576111bc610fdf565b5b60006111cb84828501611068565b91505092915050565b6000602082840312156111ea576111e9610fdf565b5b60006111f884828501611032565b91505092915050565b61120a81611009565b82525050565b60006020820190506112256000830184611201565b92915050565b6000806040838503121561124257611241610fdf565b5b600061125085828601611068565b925050602061126185828601611068565b9150509250929050565b6000806040838503121561128257611281610fdf565b5b600061129085828601611032565b92505060206112a185828601611032565b9150509250929050565b600080fd5b600080fd5b7f4e487b7100000000000000000000000000000000000000000000000000000000600052604160045260246000fd5b6112ed82610f69565b810181811067ffffffffffffffff8211171561130c5761130b6112b5565b5b80604052505050565b600061131f610fd5565b905061132b82826112e4565b919050565b600067ffffffffffffffff82111561134b5761134a6112b5565b5b61135482610f69565b9050602081019050919050565b82818337600083830152505050565b600061138361137e84611330565b611315565b90508281526020810184848401111561139f5761139e6112b0565b5b6113aa848285611361565b509392505050565b600082601f8301126113c7576113c66112ab565b5b81356113d7848260208601611370565b91505092915050565b600080600080608085870312156113fa576113f9610fdf565b5b600061140887828801611032565b945050602061141987828801611068565b935050604085013567ffffffffffffffff81111561143a57611439610fe4565b5b611446878288016113b2565b925050606061145787828801611068565b91505092959194509250565b7f4e487b7100000000000000000000000000000000000000000000000000000000600052602260045260246000fd5b600060028204905060018216806114aa57607f821691505b6020821081036114bd576114bc611463565b5b50919050565b60008190508160005260206000209050919050565b60006020601f8301049050919050565b600082821b905092915050565b6000600883026115257fffffffffffffffffffffffffffffffffffffffffffffffffffffffffffffffff826114e8565b61152f86836114e8565b95508019841693508086168417925050509392505050565b6000819050919050565b600061156c61156761156284611047565b611547565b611047565b9050919050565b6000819050919050565b61158683611551565b61159a61159282611573565b8484546114f5565b825550505050565b600090565b6115af6115a2565b6115ba81848461157d565b505050565b5b818110156115de576115d36000826115a7565b6001810190506115c0565b5050565b601f821115611623576115f4816114c3565b6115fd846114d8565b8101602085101561160c578190505b611620611618856114d8565b8301826115bf565b50505b505050565b600082821c905092915050565b600061164660001984600802611628565b1980831691505092915050565b600061165f8383611635565b9150826002028217905092915050565b61167882610f23565b67ffffffffffffffff811115611691576116906112b5565b5b61169b8254611492565b6116a68282856115e2565b600060209050601f8311600181146116d957600084156116c7578287015190505b6116d18582611653565b865550611739565b601f1984166116e7866114c3565b60005b8281101561170f578489015182556001820191506020850194506020810190506116ea565b8683101561172c5784890151611728601f891682611635565b8355505b6001600288020188555050505b505050505050565b60006060820190506117566000830186611201565b61176360208301856110f3565b61177060408301846110f3565b949350505050565b7f4e487b7100000000000000000000000000000000000000000000000000000000600052601160045260246000fd5b60006117b282611047565b91506117bd83611047565b92508282019050808211156117d5576117d4611778565b5b9291505056fea2646970667358221220222cc1f7c32fb4fef60c5dad86ee4f316a313a584617b2bc9226aba098bc5fd664736f6c63430008140033",
  "linkReferences": {},
  "deployedLinkReferences": {}
}