{
  "_format": "hh-sol-artifact-1",
  "contractName": "Marketplace",
  "sourceName": "contracts/Marketplace.sol",
  "abi": [
    {
      "inputs": [
        {
          "internalType": "address",
          "name": "_forestToken",
          "type": "address"
        },
        {
          "internalType": "address",
          "name": "_stablecoin",
          "type": "address"
        },
        {
          "internalType": "address",
          "name": "initialOwner",
          "type": "address"
        }
      ],
      "stateMutability": "nonpayable",
      "type": "constructor"
    },
    {
      "inputs": [
        {
          "internalType": "address",
          "name": "owner",
          "type": "address"
        }
      ],
      "name": "OwnableInvalidOwner",
      "type": "error"
    },
    {
      "inputs": [
        {
          "internalType": "address",
          "name": "account",
          "type": "address"
        }
      ],
      "name": "OwnableUnauthorizedAccount",
      "type": "error"
    },
    {
      "anonymous": false,
      "inputs": [
        {
          "indexed": true,
          "internalType": "address",
          "name": "previousOwner",
          "type": "address"
        },
        {
          "indexed": true,
          "internalType": "address",
          "name": "newOwner",
          "type": "address"
        }
      ],
      "name": "OwnershipTransferred",
      "type": "event"
    },
    {
      "anonymous": false,
      "inputs": [
        {
          "indexed": false,
          "internalType": "uint256",
          "name": "tokenId",
          "type": "uint256"
        },
        {
          "indexed": false,
          "internalType": "address",
          "name": "seller",
          "type": "address"
        },
        {
          "indexed": false,
          "internalType": "uint256",
          "name": "price",
          "type": "uint256"
        }
      ],
      "name": "TokenListed",
      "type": "event"
    },
    {
      "anonymous": false,
      "inputs": [
        {
          "indexed": false,
          "internalType": "uint256",
          "name": "tokenId",
          "type": "uint256"
        },
        {
          "indexed": false,
          "internalType": "address",
          "name": "buyer",
          "type": "address"
        },
        {
          "indexed": false,
          "internalType": "uint256",
          "name": "price",
          "type": "uint256"
        }
      ],
      "name": "TokenSold",
      "type": "event"
    },
    {
      "inputs": [
        {
          "internalType": "uint256",
          "name": "tokenId",
          "type": "uint256"
        }
      ],
      "name": "buyToken",
      "outputs": [],
      "stateMutability": "nonpayable",
      "type": "function"
    },
    {
      "inputs": [],
      "name": "forestToken",
      "outputs": [
        {
          "internalType": "contract CarbonForestToken",
          "name": "",
          "type": "address"
        }
      ],
      "stateMutability": "view",
      "type": "function"
    },
    {
      "inputs": [
        {
          "internalType": "uint256",
          "name": "tokenId",
          "type": "uint256"
        },
        {
          "internalType": "uint256",
          "name": "price",
          "type": "uint256"
        }
      ],
      "name": "listToken",
      "outputs": [],
      "stateMutability": "nonpayable",
      "type": "function"
    },
    {
      "inputs": [],
      "name": "listingFee",
      "outputs": [
        {
          "internalType": "uint256",
          "name": "",
          "type": "uint256"
        }
      ],
      "stateMutability": "view",
      "type": "function"
    },
    {
      "inputs": [
        {
          "internalType": "uint256",
          "name": "",
          "type": "uint256"
        }
      ],
      "name": "listings",
      "outputs": [
        {
          "internalType": "uint256",
          "name": "tokenId",
          "type": "uint256"
        },
        {
          "internalType": "address",
          "name": "seller",
          "type": "address"
        },
        {
          "internalType": "uint256",
          "name": "price",
          "type": "uint256"
        },
        {
          "internalType": "bool",
          "name": "active",
          "type": "bool"
        }
      ],
      "stateMutability": "view",
      "type": "function"
    },
    {
      "inputs": [],
      "name": "owner",
      "outputs": [
        {
          "internalType": "address",
          "name": "",
          "type": "address"
        }
      ],
      "stateMutability": "view",
      "type": "function"
    },
    {
      "inputs": [],
      "name": "renounceOwnership",
      "outputs": [],
      "stateMutability": "nonpayable",
      "type": "function"
    },
    {
      "inputs": [],
      "name": "stablecoin",
      "outputs": [
        {
          "internalType": "contract CarbonStablecoin",
          "name": "",
          "type": "address"
        }
      ],
      "stateMutability": "view",
      "type": "function"
    },
    {
      "inputs": [
        {
          "internalType": "address",
          "name": "newOwner",
          "type": "address"
        }
      ],
      "name": "transferOwnership",
      "outputs": [],
      "stateMutability": "nonpayable",
      "type": "function"
    },
    {
      "inputs": [
        {
          "internalType": "uint256",
          "name": "newFee",
          "type": "uint256"
        }
      ],
      "name": "updateListingFee",
      "outputs": [],
      "stateMutability": "nonpayable",
      "type": "function"
    }
  ],
  "bytecode": "0x608060405266354a6ba7a180006004553480156200001c57600080fd5b506040516200147738038062001477833981810160405281019062000042919062000283565b80600073ffffffffffffffffffffffffffffffffffffffff168173ffffffffffffffffffffffffffffffffffffffff1603620000b85760006040517f1e4fbdf7000000000000000000000000000000000000000000000000000000008152600401620000af9190620002f0565b60405180910390fd5b620000c9816200015560201b60201c565b5082600160006101000a81548173ffffffffffffffffffffffffffffffffffffffff021916908373ffffffffffffffffffffffffffffffffffffffff16021790555081600260006101000a81548173ffffffffffffffffffffffffffffffffffffffff021916908373ffffffffffffffffffffffffffffffffffffffff1602179055505050506200030d565b60008060009054906101000a900473ffffffffffffffffffffffffffffffffffffffff169050816000806101000a81548173ffffffffffffffffffffffffffffffffffffffff021916908373ffffffffffffffffffffffffffffffffffffffff1602179055508173ffffffffffffffffffffffffffffffffffffffff168173ffffffffffffffffffffffffffffffffffffffff167f8be0079c531659141344cd1fd0a4f28419497f9722a3daafe3b4186f6b6457e060405160405180910390a35050565b600080fd5b600073ffffffffffffffffffffffffffffffffffffffff82169050919050565b60006200024b826200021e565b9050919050565b6200025d816200023e565b81146200026957600080fd5b50565b6000815190506200027d8162000252565b92915050565b6000806000606084860312156200029f576200029e62000219565b5b6000620002af868287016200026c565b9350506020620002c2868287016200026c565b9250506040620002d5868287016200026c565b9150509250925092565b620002ea816200023e565b82525050565b6000602082019050620003076000830184620002df565b92915050565b61115a806200031d6000396000f3fe608060405234801561001057600080fd5b506004361061009e5760003560e01c8063bb154db611610066578063bb154db614610121578063de74e57b1461013f578063e9cbd82214610172578063f2fde38b14610190578063f79d91ae146101ac5761009e565b80632d296bf1146100a35780636a1b7ecc146100bf578063715018a6146100dd57806375c1631d146100e75780638da5cb5b14610103575b600080fd5b6100bd60048036038101906100b89190610b36565b6101c8565b005b6100c761055c565b6040516100d49190610b72565b60405180910390f35b6100e5610562565b005b61010160048036038101906100fc9190610b8d565b610576565b005b61010b61083e565b6040516101189190610c0e565b60405180910390f35b610129610867565b6040516101369190610c88565b60405180910390f35b61015960048036038101906101549190610b36565b61088d565b6040516101699493929190610cbe565b60405180910390f35b61017a6108ea565b6040516101879190610d24565b60405180910390f35b6101aa60048036038101906101a59190610d6b565b610910565b005b6101c660048036038101906101c19190610b36565b610996565b005b600060036000838152602001908152602001600020604051806080016040529081600082015481526020016001820160009054906101000a900473ffffffffffffffffffffffffffffffffffffffff1673ffffffffffffffffffffffffffffffffffffffff1673ffffffffffffffffffffffffffffffffffffffff168152602001600282015481526020016003820160009054906101000a900460ff161515151581525050905080606001516102b3576040517f08c379a00000000000000000000000000000000000000000000000000000000081526004016102aa90610df5565b60405180910390fd5b6000670de0b6b3a764000060045483604001516102d09190610e44565b6102da9190610eb5565b905060008183604001516102ee9190610ee6565b9050600260009054906101000a900473ffffffffffffffffffffffffffffffffffffffff1673ffffffffffffffffffffffffffffffffffffffff166323b872dd338560200151846040518463ffffffff1660e01b815260040161035393929190610f1a565b6020604051808303816000875af1158015610372573d6000803e3d6000fd5b505050506040513d601f19601f820116820180604052508101906103969190610f7d565b50600260009054906101000a900473ffffffffffffffffffffffffffffffffffffffff1673ffffffffffffffffffffffffffffffffffffffff166323b872dd336103de61083e565b856040518463ffffffff1660e01b81526004016103fd93929190610f1a565b6020604051808303816000875af115801561041c573d6000803e3d6000fd5b505050506040513d601f19601f820116820180604052508101906104409190610f7d565b50600160009054906101000a900473ffffffffffffffffffffffffffffffffffffffff1673ffffffffffffffffffffffffffffffffffffffff166323b872dd846020015133876040518463ffffffff1660e01b81526004016104a493929190610f1a565b6020604051808303816000875af11580156104c3573d6000803e3d6000fd5b505050506040513d601f19601f820116820180604052508101906104e79190610f7d565b5060006003600086815260200190815260200160002060030160006101000a81548160ff0219169083151502179055507f5de13defa3534de0567d51e62e997235f1c1e8ddc82289aeaca94516a358d5398433856040015160405161054e93929190610faa565b60405180910390a150505050565b60045481565b61056a6109a8565b6105746000610a2f565b565b81600160009054906101000a900473ffffffffffffffffffffffffffffffffffffffff1673ffffffffffffffffffffffffffffffffffffffff166370a08231336040518263ffffffff1660e01b81526004016105d29190610c0e565b602060405180830381865afa1580156105ef573d6000803e3d6000fd5b505050506040513d601f19601f820116820180604052508101906106139190610ff6565b1015610654576040517f08c379a000000000000000000000000000000000000000000000000000000000815260040161064b9061106f565b60405180910390fd5b81600160009054906101000a900473ffffffffffffffffffffffffffffffffffffffff1673ffffffffffffffffffffffffffffffffffffffff1663dd62ed3e33306040518363ffffffff1660e01b81526004016106b292919061108f565b602060405180830381865afa1580156106cf573d6000803e3d6000fd5b505050506040513d601f19601f820116820180604052508101906106f39190610ff6565b1015610734576040517f08c379a000000000000000000000000000000000000000000000000000000000815260040161072b90611104565b60405180910390fd5b60405180608001604052808381526020013373ffffffffffffffffffffffffffffffffffffffff16815260200182815260200160011515815250600360008481526020019081526020016000206000820151816000015560208201518160010160006101000a81548173ffffffffffffffffffffffffffffffffffffffff021916908373ffffffffffffffffffffffffffffffffffffffff1602179055506040820151816002015560608201518160030160006101000a81548160ff0219169083151502179055509050507f7765a1c07bdce3390c521eaeb86030b188b77cbaba2d76bd7c9c32d906bfbcba82338360405161083293929190610faa565b60405180910390a15050565b60008060009054906101000a900473ffffffffffffffffffffffffffffffffffffffff16905090565b600160009054906101000a900473ffffffffffffffffffffffffffffffffffffffff1681565b60036020528060005260406000206000915090508060000154908060010160009054906101000a900473ffffffffffffffffffffffffffffffffffffffff16908060020154908060030160009054906101000a900460ff16905084565b600260009054906101000a900473ffffffffffffffffffffffffffffffffffffffff1681565b6109186109a8565b600073ffffffffffffffffffffffffffffffffffffffff168173ffffffffffffffffffffffffffffffffffffffff160361098a5760006040517f1e4fbdf70000000000000000000000000000000000000000000000000000000081526004016109819190610c0e565b60405180910390fd5b61099381610a2f565b50565b61099e6109a8565b8060048190555050565b6109b0610af3565b73ffffffffffffffffffffffffffffffffffffffff166109ce61083e565b73ffffffffffffffffffffffffffffffffffffffff1614610a2d576109f1610af3565b6040517f118cdaa7000000000000000000000000000000000000000000000000000000008152600401610a249190610c0e565b60405180910390fd5b565b60008060009054906101000a900473ffffffffffffffffffffffffffffffffffffffff169050816000806101000a81548173ffffffffffffffffffffffffffffffffffffffff021916908373ffffffffffffffffffffffffffffffffffffffff1602179055508173ffffffffffffffffffffffffffffffffffffffff168173ffffffffffffffffffffffffffffffffffffffff167f8be0079c531659141344cd1fd0a4f28419497f9722a3daafe3b4186f6b6457e060405160405180910390a35050565b600033905090565b600080fd5b6000819050919050565b610b1381610b00565b8114610b1e57600080fd5b50565b600081359050610b3081610b0a565b92915050565b600060208284031215610b4c57610b4b610afb565b5b6000610b5a84828501610b21565b91505092915050565b610b6c81610b00565b82525050565b6000602082019050610b876000830184610b63565b92915050565b60008060408385031215610ba457610ba3610afb565b5b6000610bb285828601610b21565b9250506020610bc385828601610b21565b9150509250929050565b600073ffffffffffffffffffffffffffffffffffffffff82169050919050565b6000610bf882610bcd565b9050919050565b610c0881610bed565b82525050565b6000602082019050610c236000830184610bff565b92915050565b6000819050919050565b6000610c4e610c49610c4484610bcd565b610c29565b610bcd565b9050919050565b6000610c6082610c33565b9050919050565b6000610c7282610c55565b9050919050565b610c8281610c67565b82525050565b6000602082019050610c9d6000830184610c79565b92915050565b60008115159050919050565b610cb881610ca3565b82525050565b6000608082019050610cd36000830187610b63565b610ce06020830186610bff565b610ced6040830185610b63565b610cfa6060830184610caf565b95945050505050565b6000610d0e82610c55565b9050919050565b610d1e81610d03565b82525050565b6000602082019050610d396000830184610d15565b92915050565b610d4881610bed565b8114610d5357600080fd5b50565b600081359050610d6581610d3f565b92915050565b600060208284031215610d8157610d80610afb565b5b6000610d8f84828501610d56565b91505092915050565b600082825260208201905092915050565b7f4c697374696e67206e6f74206163746976650000000000000000000000000000600082015250565b6000610ddf601283610d98565b9150610dea82610da9565b602082019050919050565b60006020820190508181036000830152610e0e81610dd2565b9050919050565b7f4e487b7100000000000000000000000000000000000000000000000000000000600052601160045260246000fd5b6000610e4f82610b00565b9150610e5a83610b00565b9250828202610e6881610b00565b91508282048414831517610e7f57610e7e610e15565b5b5092915050565b7f4e487b7100000000000000000000000000000000000000000000000000000000600052601260045260246000fd5b6000610ec082610b00565b9150610ecb83610b00565b925082610edb57610eda610e86565b5b828204905092915050565b6000610ef182610b00565b9150610efc83610b00565b9250828203905081811115610f1457610f13610e15565b5b92915050565b6000606082019050610f2f6000830186610bff565b610f3c6020830185610bff565b610f496040830184610b63565b949350505050565b610f5a81610ca3565b8114610f6557600080fd5b50565b600081519050610f7781610f51565b92915050565b600060208284031215610f9357610f92610afb565b5b6000610fa184828501610f68565b91505092915050565b6000606082019050610fbf6000830186610b63565b610fcc6020830185610bff565b610fd96040830184610b63565b949350505050565b600081519050610ff081610b0a565b92915050565b60006020828403121561100c5761100b610afb565b5b600061101a84828501610fe1565b91505092915050565b7f4e6f7420656e6f75676820746f6b656e73000000000000000000000000000000600082015250565b6000611059601183610d98565b915061106482611023565b602082019050919050565b600060208201905081810360008301526110888161104c565b9050919050565b60006040820190506110a46000830185610bff565b6110b16020830184610bff565b9392505050565b7f416c6c6f77616e6365206e6f7420736574000000000000000000000000000000600082015250565b60006110ee601183610d98565b91506110f9826110b8565b602082019050919050565b6000602082019050818103600083015261111d816110e1565b905091905056fea2646970667358221220a30a586c4d8f3df4356c1523c2ab99c5c704e44f8445e8b4c7e1a51ceb6f075964736f6c63430008140033",
  "linkReferences": {},
  "deployedLinkReferences": {}
}